:100000000C942A000C9434000C9434000C943400AA
:100010000C9434000C9434000C9434000C94340090
:100020000C9434000C9434000C9434000C94340080
:100030000C9434000C9434000C9434000C94340070
:100040000C9434000C9434000C9434000C94340060
:100050000C94340011241FBECFE5D4E0DEBFCDBF29
:100060000E9441000C944A000C94000087E085BD7A
:1000700086EF84BD08B606FEFDCF15BC80E488BFC0
:1000800008958FEF87BB18BA88B3809588BB0E940C
:080090003600FACFF894FFCF0F
:00000001FF
